:0400000007EF00F016
:0A0008005182ACED04F095EF07F013
:07060000000A0A003A0000A5
:10060800ACC0D9FFADC0DAFFDECFF6FFDECFF7FF13
:10061800050EF76403D00800F55005D0F6CFE1FFCA
:10062800F7CFE2FFE750250AD8A41DEF03F01FEF2C
:1006380003F0B2EF03F0ACC0D9FFADC0DAFFDE2A99
:10064800000EDD22000E3B6E000E3A6E3AC03EF000
:100658003BC03FF03C683D68ACC0D9FFADC0DAFF95
:10066800DECFF6FFDECFF7FF050EF76403D00800F4
:10067800F55005D0F6CFE1FFF7CFE2FFE7506E0A5D
:10068800D8A449EF03F04BEF03F075EF03F0ACC0CB
:10069800D9FFADC0DAFFDE2A000EDD22AEC0D9FFD9
:1006A800AFC0DAFFDFCFB0F0020EDE26DFCFB1F049
:1006B800000EDD22B0C0D9FFB1C0DAFFDECFB2F044
:1006C800DDCFB3F0B2C0D9FFB3C0DAFF38C0DEFF68
:1006D80039C0DDFF000E0001AB6F000EAA6FD9EF25
:1006E80003F0ACC0D9FFADC0DAFFDECFF6FFDECF36
:1006F800F7FF050EF76403D00800F55005D0F6CFD4
:10070800E1FFF7CFE2FFE750250AD8A48EEF03F008
:1007180090EF03F0A9EF03F0ACC0D9FFADC0DAFF4A
:10072800DE2A000EDD22000E0001A26F250EA16F49
:10073800AAC0A3F0ABC0A4F066EC06F0000E00015E
:10074800AB6F010EAA6FD9EF03F0ACC0D9FFADC0F3
:10075800DAFFDE2A000EDD226EEF03F0ACC0D9FF0F
:10076800ADC0DAFFDECFF6FFDECFF7FF050EF76488
:1007780003D00800F55005D0F6CFE1FFF7CFE2FF30
:10078800E7500001B06FB051A16FA26BAAC0A3F0EF
:10079800ABC0A4F066EC06F0ACC0D9FFADC0DAFF80
:1007A800DE2A000EDD22A2EF03F012000DC0D9FFF1
:1007B8000EC0DAFFDECFF6FFDECFF7FF050EF764D7
:1007C80003D00800F55005D0F6CFE1FFF7CFE2FFE0
:1007D800E750250AD8A4F3EF03F0F5EF03F085EF0F
:1007E80004F00DC0D9FF0EC0DAFFDE2A000EDD22AC
:1007F800000E3B6E000E3A6E3AC03EF03BC03FF032
:100808003C683D680DC0D9FF0EC0DAFFDECFF6FFA9
:10081800DECFF7FF050EF76403D00800F55005D0CA
:10082800F6CFE1FFF7CFE2FFE7506E0AD8A41FEF3B
:1008380004F021EF04F04AEF04F00DC0D9FF0EC018
:10084800DAFFDE2A000EDD220FC0D9FF10C0DAFF62
:10085800DFCF11F0020EDE26DFCF12F0000EDD2210
:1008680011C0D9FF12C0DAFFDECF13F0DDCF14F0CC
:1008780013C0D9FF14C0DAFF38C0DEFF39C0DDFF6E
:10088800000E0C6E000E0B6EABEF04F00DC0D9FF1E
:100898000EC0DAFFDECFF6FFDECFF7FF050EF764F6
:1008A80003D00800F55005D0F6CFE1FFF7CFE2FFFF
:1008B800E750250AD8A463EF04F065EF04F07CEF55
:1008C80004F00DC0D9FF0EC0DAFFDE2A000EDD22CB
:1008D800000E036E250E026E0BC004F00CC005F06E
:1008E800B2EC06F0000E0C6E010E0B6EABEF04F0CE
:1008F8000DC0D9FF0EC0DAFFDE2A000EDD2244EF5C
:1009080004F00DC0D9FF0EC0DAFFDECFF6FFDECF50
:10091800F7FF050EF76403D00800F55005D0F6CFB1
:10092800E1FFF7CFE2FFE750116E1150026E036A44
:100938000BC004F00CC005F0B2EC06F00DC0D9FFF6
:100948000EC0DAFFDE2A000EDD2276EF04F0120078
:100958000600E1CF30F0E2CF31F0D9CF32F0DACF74
:1009680033F0F6CF34F0F7CF35F0F8CF36F0F5CFD7
:1009780037F09EA0C2EF04F0C4EF04F03FEF05F09B
:100988009E90FC0ECF6E170ECE6E444A452A45BE89
:10099800D7EF04F0E80E445C030E4558D8A0D7EF13
:1009A80004F0D9EF04F03FEF05F0000E456E000E9D
:1009B800446E4F4A502A50BEEBEF04F0505009E104
:1009C8003C0E4F5CD8A0EBEF04F0EDEF04F015EF10
:1009D80005F0000E506E000E4F6E424A432A43BE89
:1009E800FFEF04F0435009E13C0E425CD8A0FFEF52
:1009F80004F001EF05F015EF05F0000E436E000E50
:100A0800426E010E4024016E000E4120026E000E5F
:100A1800046E180E036E0EEC06F001C040F002C022
:100A280041F040C021F041C022F0B3EC05F0040EC3
:100A38001D6E060E1E6ECCEC07F042C021F043C0BE
:100A480022F0B3EC05F0040E1D6E060E1E6ECCEC03
:100A580007F04FC021F050C022F0B3EC05F0020EB1
:100A68001D6E060E1E6ECCEC07F04FC089FF42C00B
:100A78008AFF40C08BFF37C0F5FF36C0F8FF35C08E
:100A8800F7FF34C0F6FF33C0DAFF32C0D9FF31C0F8
:100A9800E2FF30C0E1FF51921100000E066E04BE65
:100AA8005AEF05F058EF05F060EF05F0036C041EEF
:100AB800D8B0042A010E066E02BE67EF05F065EF96
:100AC80005F06DEF05F0016C021ED8B0022A010E88
:100AD800061A000E086E000E076E03500410D8B4F4
:100AE80078EF05F07AEF05F0A2EF05F0010E056E3C
:100AF80082EF05F0D89003360436052A04AE87EF56
:100B080005F089EF05F07EEF05F0D8900736083636
:100B18000350015C04500258D8A095EF05F097EFF8
:100B280005F09CEF05F00350015E0450025A07805F
:100B3800D89004320332052E89EF05F00650D8B458
:100B4800A8EF05F0AAEF05F0AEEF05F0076C081E58
:100B5800D8B0082A07C001F008C002F0120020EE41
:100B680046F010EE25F0080EDBCFE3FFE806FCE2C6
:100B7800000E2F6E000E2E6E21A0C5EF05F0C7EFF8
:100B880005F0D9EF05F0070E236E000E246E2E50E7
:100B9800235E2F50245A250E2324D96E000E2420BC
:100BA800DA6E310EDF6EE9EF05F0070E236E000EE8
:100BB800246E2E50235E2F50245A250E2324D96EDE
:100BC800000E2420DA6E300EDF6E21C001F022C044
:100BD80002F0000E046E020E036E51EC05F001C027
:100BE80021F002C022F02E4A2F2A2FBE05EF06F070
:100BF8002F5009E1080E2E5CD8A005EF06F007EF8C
:100C080006F0C0EF05F0250E1D6E000E1E6ECCEC32
:100C180007F01200000E066E02BE17EF06F015EF81
:100C280006F01DEF06F0016C021ED8B0022A010E74
:100C3800066E04BE24EF06F022EF06F028EF06F059
:100C4800036C041ED8B0042A03500410D8B42FEF44
:100C580006F031EF06F055EF06F0010E056E39EF9C
:100C680006F0D89003360436052A04AE3EEF06F0A7
:100C780040EF06F035EF06F00350015C04500258CF
:100C8800D8A049EF06F04BEF06F04FEF06F00350FF
:100C9800015E0450025AD89004320332052E40EF08
:100CA80006F00650D8B45BEF06F05DEF06F061EF92
:100CB80006F0016C021ED8B0022A01C001F002C081
:100CC80002F012000001A351A411D8B46EEF06F08F
:100CD80070EF06F079EF06F0A351A411D8A477EFCE
:100CE80006F079EF06F07EEF06F0A151DFEC07F091
:100CF800B1EF06F020EE04F0A351D926A451DA2270
:100D0800DE50DE10D8B48BEF06F08DEF06F0A8EFBA
:100D180006F020EE04F0A351D926A451DA2210EEF1
:100D280002F0A351E126A451E222DE50E65CE6502F
:100D3800800AA96FDE50800AA959D8B0A6EF06F03C
:100D4800A8EF06F0B1EF06F020EE02F0A351D92685
:100D5800A451DA22DE2A000EDD221200045005100A
:100D6800D8B4B9EF06F0BBEF06F0C4EF06F00450B4
:100D78000510D8A4C2EF06F0C4EF06F0C9EF06F0DC
:100D88000250EBEC07F0FCEF06F020EE04F0045004
:100D9800D9260550DA22DE50DE10D8B4D6EF06F098
:100DA800D8EF06F0F3EF06F020EE04F00450D92651
:100DB8000550DA2210EE02F00450E1260550E22236
:100DC800DE50E65CE650800A0A6EDE50800A0A5859
:100DD800D8B0F1EF06F0F3EF06F0FCEF06F020EEE6
:100DE80002F00450D9260550DA22DE2A000EDD2250
:100DF8001200B6C0BAF0B7C0BBF0000E396E000ED4
:100E0800386E1BEF07F0B4C0AAF0B5C0ABF0BA0E4D
:100E18000001AC6F000EAD6FB8C0AEF0B9C0AFF056
:100E280004EC03F00001AA513826AB513922BAC0AC
:100E3800F6FFBBC0F7FFF86A050EF76403D0080099
:100E4800F55005D0F6CFE1FFF7CFE2FFE7500009F4
:100E5800D8A431EF07F033EF07F007EF07F038C0F9
:100E6800B4F039C0B5F0120017C01BF018C01CF060
:100E7800000E396E000E386E54EF07F015C00BF0F7
:100E880016C00CF01B0E0D6E000E0E6E19C00FF082
:100E98001AC010F0DAEC03F00B5038260C50392247
:100EA8001BC0F6FF1CC0F7FFF86A050EF76403D0F5
:100EB8000800F55005D0F6CFE1FFF7CFE2FFE75085
:100EC8000009D8A46AEF07F06CEF07F042EF07F0CB
:100ED80038C015F039C016F01200000E926E000EE0
:100EE800936E000E946E000E896E000E8A6E000ED0
:100EF8008B6E958E958CAC8AAB8E010E0001BC6F03
:100F0800060EBD6FB8EC07F0C00EF26E9D80CD8066
:100F18009E90FC0ECF6E170ECE6E91EF07F007EF86
:100F280000F0EC0EF66E0F0EF76E000EF86E00EE87
:100F380046F010EE0BF00900F5CFEEFFE550E1505A
:100F4800FAE100EE80F0200EEE6AE806FDE100EE20
:100F580038F00E0EEE6AE806FDE151905192000E4F
:100F6800F86E000171EF07F0BE0E0001BE6F000EB3
:100F7800BF6F000EB46F000EB56FBCC0B6F0BDC039
:100F8800B7F0BE0EB86F000EB96FFDEC06F0120098
:100F98001F0E1F6E000E206E000E156E000E166ED0
:100FA8001DC017F01EC018F01F0E196E000E1A6E25
:100FB80038EC07F012000001A06F9EA8E6EF07F0DA
:100FC800E8EF07F0E1EF07F0A0C0ADFF1200016EF7
:100FD8009EA8F1EF07F0F3EF07F0ECEF07F001C080
:0F0FE800ADFF1200303030303030303000FFFFBE
:020000040020DA
:08000000FFFFFFFFFFFFFFFF00
:020000040030CA
:0E000000FF011900FF8181FF0FC00FE00F40CC
:00000001FF
